:020000040000fa
:080000000002040000000000f2
:020000040000fa
:04000800c807000025
:020000040000fa
:04000c005c0700008d
:020000040000fa
:040010007c07000069
:020000040000fa
:0400140008080000d8
:020000040000fa
:04001800e8070000f5
:020000040000fa
:04001c00520a000084
:020000040000fa
:040020009c07000039
:020000040000fa
:04002400520a00007c
:020000040000fa
:04002800520a000078
:020000040000fa
:04002c002a0800009e
:020000040000fa
:04003000520a000070
:020000040000fa
:04003400520a00006c
:020000040000fa
:04003800520a000068
:020000040000fa
:04003c00520a000064
:020000040000fa
:04004000520a000060
:020000040000fa
:040044004a08000066
:020000040000fa
:04004800520a000058
:020000040000fa
:04004c00520a000054
:020000040000fa
:04005000520a000050
:020000040000fa
:04005400d8080000c8
:020000040000fa
:04005800700800002c
:020000040000fa
:04005c00520a000044
:020000040000fa
:04006000520a000040
:020000040000fa
:04006400520a00003c
:020000040000fa
:04006800520a000038
:020000040000fa
:04006c00520a000034
:020000040000fa
:04007000520a000030
:020000040000fa
:04007400520a00002c
:020000040000fa
:04007800520a000028
:020000040000fa
:04007c00520a000024
:020000040000fa
:04008000520a000020
:020000040000fa
:04008400520a00001c
:020000040000fa
:04008800520a000018
:020000040000fa
:04008c00520a000014
:020000040000fa
:04009000520a000010
:020000040000fa
:04009400520a00000c
:020000040000fa
:04009800520a000008
:020000040000fa
:04009c00520a000004
:020000040000fa
:0400a000520a000000
:020000040000fa
:0400a400520a0000fc
:020000040000fa
:0400a800520a0000f8
:020000040000fa
:0400ac00520a0000f4
:020000040000fa
:0400b000520a0000f0
:020000040000fa
:0400b400520a0000ec
:020000040000fa
:0400b800520a0000e8
:020000040000fa
:0400bc00520a0000e4
:020000040000fa
:0400c000520a0000e0
:020000040000fa
:0400c400520a0000dc
:020000040000fa
:0400c800520a0000d8
:020000040000fa
:0400cc00520a0000d4
:020000040000fa
:0400d000520a0000d0
:020000040000fa
:0400d400520a0000cc
:020000040000fa
:0400d800520a0000c8
:020000040000fa
:0400dc0036070000e3
:020000040000fa
:0400e000520a0000c0
:020000040000fa
:0400e400520a0000bc
:020000040000fa
:0400e800520a0000b8
:020000040000fa
:0400ec0066090000a1
:020000040000fa
:0400f000520a0000b0
:020000040000fa
:0400f400520a0000ac
:020000040000fa
:0400f800520a0000a8
:020000040000fa
:0400fc00520a0000a4
:020000040000fa
:04010000520a00009f
:020000040000fa
:04010400520a00009b
:020000040000fa
:04010800520a000097
:020000040000fa
:04010c00520a000093
:020000040000fa
:04011000520a00008f
:020000040000fa
:04011400520a00008b
:020000040000fa
:04011800520a000087
:020000040000fa
:04011c00520a000083
:020000040000fa
:04012000520a00007f
:020000040000fa
:04012400520a00007b
:020000040000fa
:04012800520a000077
:020000040000fa
:04012c00520a000073
:020000040000fa
:04013000520a00006f
:020000040000fa
:04013400520a00006b
:020000040000fa
:04013800520a000067
:020000040000fa
:04013c00520a000063
:020000040000fa
:04014000520a00005f
:020000040000fa
:04014400520a00005b
:020000040000fa
:04014800520a000057
:020000040000fa
:04014c00520a000053
:020000040000fa
:04015000520a00004f
:020000040000fa
:04015400060700009a
:020000040000fa
:04015800520a000047
:020000040000fa
:04015c00520a000043
:020000040000fa
:04016000520a00003f
:020000040000fa
:04016400520a00003b
:020000040000fa
:04016800520a000037
:020000040000fa
:04016c00520a000033
:020000040000fa
:04017000520a00002f
:020000040000fa
:04017400520a00002b
:020000040000fa
:04017800520a000027
:020000040000fa
:04017c00520a000023
:020000040000fa
:04018000520a00001f
:020000040000fa
:04018400520a00001b
:020000040000fa
:04018800520a000017
:020000040000fa
:04018c00520a000013
:020000040000fa
:040190001a0600004b
:020000040000fa
:04019400520a00000b
:020000040000fa
:04019800520a000007
:020000040000fa
:04019c00520a000003
:020000040000fa
:0401a000520a0000ff
:020000040000fa
:0401a400520a0000fb
:020000040000fa
:0401a800520a0000f7
:020000040000fa
:0401ac00520a0000f3
:020000040000fa
:0401b0008a060000bb
:020000040000fa
:0401b400520a0000eb
:020000040000fa
:0401b800520a0000e7
:020000040000fa
:0401bc00520a0000e3
:020000040000fa
:0401c000520a0000df
:020000040000fa
:0401c400520a0000db
:020000040000fa
:0401c800520a0000d7
:020000040000fa
:0401cc00520a0000d3
:020000040000fa
:0401d000c80600005d
:020000040000fa
:0401d400520a0000cb
:020000040000fa
:0401d800520a0000c7
:020000040000fa
:0401dc00520a0000c3
:020000040000fa
:0401e000520a0000bf
:020000040000fa
:0401e400520a0000bb
:020000040000fa
:0401e800520a0000b7
:020000040000fa
:0401ec00520a0000b3
:020000040000fa
:0401f000520a0000af
:020000040000fa
:0401f400520a0000ab
:020000040000fa
:0401f800520a0000a7
:020000040000fa
:0401fc00520a0000a3
:020000040000fa
:04020000520a00009e
:020000040000fa
:04020400520a00009a
:020000040000fa
:04020800520a000096
:020000040000fa
:04020c00520a000092
:020000040000fa
:04021000520a00008e
:020000040000fa
:04021400520a00008a
:020000040000fa
:04021800520a000086
:020000040000fa
:04021c00520a000082
:020000040000fa
:04022000520a00007e
:020000040000fa
:04022400520a00007a
:020000040000fa
:04022800520a000076
:020000040000fa
:04022c00520a000072
:020000040000fa
:04023000520a00006e
:020000040000fa
:04023400520a00006a
:020000040000fa
:04023800520a000066
:020000040000fa
:04023c00520a000062
:020000040000fa
:04024000520a00005e
:020000040000fa
:04024400520a00005a
:020000040000fa
:04024800520a000056
:020000040000fa
:04024c00520a000052
:020000040000fa
:04025000520a00004e
:020000040000fa
:04025400520a00004a
:020000040000fa
:04025800520a000046
:020000040000fa
:04025c00520a000042
:020000040000fa
:04026000520a00003e
:020000040000fa
:04026400520a00003a
:020000040000fa
:04026800520a000036
:020000040000fa
:04026c00520a000032
:020000040000fa
:04027000520a00002e
:020000040000fa
:04027400520a00002a
:020000040000fa
:04027800520a000026
:020000040000fa
:04027c00520a000022
:020000040000fa
:04028000520a00001e
:020000040000fa
:04028400520a00001a
:020000040000fa
:04028800520a000016
:020000040000fa
:04028c00520a000012
:020000040000fa
:04029000520a00000e
:020000040000fa
:04029400520a00000a
:020000040000fa
:04029800520a000006
:020000040000fa
:04029c00520a000002
:020000040000fa
:0402a000520a0000fe
:020000040000fa
:0402a400520a0000fa
:020000040000fa
:0402a800520a0000f6
:020000040000fa
:0402ac00520a0000f2
:020000040000fa
:0402b000520a0000ee
:020000040000fa
:0402b400520a0000ea
:020000040000fa
:0402b800520a0000e6
:020000040000fa
:0402bc00520a0000e2
:020000040000fa
:0402c000520a0000de
:020000040000fa
:0402c400520a0000da
:020000040000fa
:0402c800520a0000d6
:020000040000fa
:0402cc00520a0000d2
:020000040000fa
:0402d000520a0000ce
:020000040000fa
:0402d400520a0000ca
:020000040000fa
:0402d800520a0000c6
:020000040000fa
:0402dc00520a0000c2
:020000040000fa
:0402e000520a0000be
:020000040000fa
:0402e400520a0000ba
:020000040000fa
:0402e800520a0000b6
:020000040000fa
:0402ec00520a0000b2
:020000040000fa
:0402f000520a0000ae
:020000040000fa
:0402f400520a0000aa
:020000040000fa
:0402f800520a0000a6
:020000040000fa
:0402fc00520a0000a2
:020000040000fa
:04030000520a00009d
:020000040000fa
:04030400520a000099
:020000040000fa
:04030800520a000095
:020000040000fa
:04030c00520a000091
:020000040000fa
:04031000520a00008d
:020000040000fa
:04031400520a000089
:020000040000fa
:04031800520a000085
:020000040000fa
:04031c00480a00008b
:020000040000fa
:04032000520a00007d
:020000040000fa
:04032400520a000079
:020000040000fa
:100400006fe622000eff22000e01880000000000af
:10041000000020000000e000020032000001200087
:1004200020028800140007005d0407000000e000bf
:1004300003003a00203a26000100200002003700a5
:100440000000200001002000810f70000100320038
:100450000f000700000020000000e0000200320052
:1004600000000200000000001a540200000000001a
:100470000040da000000fe00401e20000000e00006
:1004800002003200002020009001880000000600d9
:10049000a1028800800478000000eb001f003700f4
:1004a000e284440054a0b4009905ba00e2844400f8
:1004b00054a0b4009906ba00e284440054a0b400e9
:1004c0000006eb00476fde00fd07b200ae018800ba
:1004d000636ce10003003a000ad801000000eb0061
:1004e0000e003700606ce10008003a00004deb00a0
:1004f0000a05e800020039003420ec000af0a000f0
:100500008b05e900f9ff3e00040037006168e10057
:10051000010032000086eb000b00070019c7ba008b
:100520001905ba000e04e00003003a000a00e000da
:10053000dbff3a0000000600fe07b200ae028800b2
:100540008a047800f5ff37000cd0a300e20f4d00bd
:100550001c003b0089027800354dba000a05e8000e
:10056000020039003420ec000af0a0008b05e900fd
:100570000f003200254dba000a05e80002003900dc
:100580003420ec000af0a0008b05e90008003200de
:100590000c00e0000600320015cdba000a05e800a4
:1005a000020039003420ec000af0a0008b05e900bd
:1005b0008984e80054a0b4000b00e000e2ff3a0098
:1005c000000006009902ba00055d78008b05e9007d
:1005d000f7ff3200c82ade00055d78008b05e900d0
:1005e000f3ff32000c00e000f1ff320019ddba0029
:1005f000eeff3700000000000000000000000000d7
:1006000000000000000000000000000000000000ea
:1006100000000000000000000000000000000000da
:1006200000000000000000000000000000000000ca
:1006300000000000000000000000000000000000ba
:100c3000000000003600f800809fbe00829fbe00ca
:100c4000849fbe00869fbe003200f8003400f8008a
:100c500010002000a00188000020200000d0fe002d
:100c60000200fa00809180000000e00002003200e3
:100c700080918000000001006040800064006000fe
:100c80000000e0000a003200d1608000010f78000f
:100c9000909180000000e0000400320092918000fa
:100ca0009e0078000000eb00020001000c48a90043
:100cb0006140800000402000008060000000e000f3
:100cc0000a00320051618000010f7800909180008d
:100cd0000000e00004003200929180009e00780045
:100ce00010002000020001000d48a9000b48a900d7
:100cf0000080fa003400f9003200f9004f03be0012
:100d00004f02be004f01be004f00be003600f9008a
:100d1000004006003600f800809fbe00829fbe00a3
:100d2000849fbe00869fbe003200f8003400f800a9
:100d300010002000a00188000020200000d0fe004c
:100d40000200fa00d1608000010f780090918000cd
:100d50000000e00004003200929180009e007800c4
:100d60000000eb00020001000c48a9000080fa001e
:100d70003400f9003200f9004f03be004f02be00fc
:100d80004f01be004f00be003600f90000400600d3
:100d90003600f800809fbe00829fbe00849fbe0088
:100da000869fbe003200f8003400f80010002000da
:100db000a00188000020200000d0fe000200fa0000
:100dc00051618000010f7800909180000000e000e8
:100dd00004003200929180009e00780010002000f4
:100de000020001000d48a9000080fa003400f9005b
:100df0003200f9004f03be004f02be004f01be009b
:100e00004f00be003600f900004006003600f80032
:100e1000809fbe00829fbe00849fbe00869fbe0052
:100e20000000fa0050738000620060000000e000e3
:100e300006003200009280000000e0000200320054
:100e400000928000000001006a2ea9000968a90034
:100e50000080fa004f03be004f02be004f01be00eb
:100e60004f00be003600f900004006003600f800d2
:100e7000809fbe00829fbe00849fbe00869fbe00f2
:100e80000000fa00309180000000e0000200320013
:100e9000309180000000010005a8a9000080fa0040
:100ea0004f03be004f02be004f01be004f00be0008
:100eb0003600f900004006003600f800809fbe00b2
:100ec000829fbe00849fbe00869fbe000000fa0085
:100ed000c068a900200020000b3207000080fa0043
:100ee0004f03be004f02be004f01be004f00be00c8
:100ef0003600f900004006003600f800809fbe0072
:100f0000829fbe00849fbe00869fbe000000fa0044
:100f1000c608a90070002000fb3107000080fa001d
:100f20004f03be004f02be004f01be004f00be0087
:100f30003600f900004006003600f800809fbe0031
:100f4000829fbe00849fbe00869fbe000000fa0004
:100f500020468000700060000000e00003003200c6
:100f6000c488a900a0002000e731070021468000c6
:100f700000102000008060000000e000030032004c
:100f8000c508a900c0002000df310700ffff3700bf
:100f90003600f800809fbe00829fbe00849fbe0086
:100fa000869fbe000000fa00c028a9000000eb00e8
:100fb000d53107000080fa004f03be004f02be008b
:100fc0004f01be004f00be003600f9000040060091
:100fd0003600f800809fbe00829fbe00849fbe0046
:100fe000869fbe000000fa00c088a90030002000e3
:100ff000c53107000080fa004f03be004f02be005b
:101000004f01be004f00be003600f9000040060050
:101010003600f800809fbe00829fbe00849fbe0005
:10102000869fbe000000fa00be310700c048a9003c
:1010300010002000b43107000080fa004f03be000a
:101040004f02be004f01be004f00be003600f90047
:10105000004006003600f800809fbe00829fbe0060
:10106000849fbe00869fbe000000fa002092800090
:10107000000001000028a9000080fa004f03be0014
:101080004f02be004f01be004f00be003600f90007
:10109000004006003600f800809fbe00829fbe0020
:1010a000849fbe00869fbe000000fa003092800040
:1010b0000000e000020032003092800000000100d9
:1010c00000e8a9000080fa004f03be004f02be00f6
:1010d0004f01be004f00be003600f9000040060080
:1010e0003600f800809fbe00829fbe00849fbe0035
:1010f000869fbe000000fa00419080003090800082
:10110000808f500004003a002188a90010c0b3006d
:1011100048f2b7001f0037000188a9001700370008
:1011200040908000104078000080fb004012880052
:10113000409080000000e8004090880041908000ce
:10114000b0e52200808f500002003a0020e5220026
:10115000409088004190800030908000808f500047
:1011600006003a00709080000000e00008003200a5
:10117000709080000000010006003700f011800030
:10118000700060000000e000e5ff32000100370061
:10119000000000000080fa004f03be004f02be00b6
:1011a0004f01be004f00be003600f90000400600af
:1011b0003600f800809fbe00829fbe00849fbe0064
:1011c000869fbe000400fa000000eb00000f7800cc
:1011d0008000eb000e80e800010878000168a9009b
:1011e0002a00370011908000201280000040780013
:1011f0008048780080002000000f78000e80e80012
:1012000011908000010878000e80e800100078003e
:101210008000e8000e80e80001087800b0e52200b8
:101220001e00400011908000810f50000900320024
:10123000219080000e80e80010007800810f50009f
:1012400004003200109080000000e8001090880038
:101250000e003700b0e522001e0040001190800013
:10126000810f500007003a0021908000b0e5220075
:10127000808f500003003200b0e5220010908800fb
:101280000200370010c0b3000af2b700f01180006e
:10129000620060000000e000d2ff32006090800039
:1012a0000000e000020032006090800000000100b9
:1012b0000080fa004f03be004f02be004f01be0087
:1012c0004f00be003600f900004006003600f8006e
:1012d000809fbe00829fbe00849fbe00869fbe008e
:1012e0000000fa00e1118000000220000080600090
:1012f0000000e0000c003200009080000040780008
:101300000044a000614060000080fb0061006000bc
:101310004400dd00019080000140a1000100700048
:10132000009088003ca2a900e011800061006000ec
:101330000000e000110032000090800000407800c2
:101340000034a000614060000080fb00610060008c
:101350004300dd00019080000130a1000100700019
:1013600000908800809080000000e00002003200c1
:1013700080908000000001003c02a900e011800084
:10138000620060000000e000110032000090800068
:10139000004078000024a000614060000080fb0055
:1013a000610060004200dd00019080000120a1008a
:1013b0000100700000908800a09080000000e00014
:1013c00002003200a0908000000001003c22a90031
:1013d000e111800000042000008060000000e000b7
:1013e0001000320000908000004078000014a0003f
:1013f000614060000080fb00610060000000400070
:10140000019080000110a100010070000090880090
:10141000b09080000000e00002003200b090800038
:1014200000000100e0118000680060000000e000a2
:101430000f00320000908000004078000004a000ff
:10144000614060000080fb0061006000019080004e
:101450000100a100010070000090880090908000c1
:101460000000e000020032009090800000000100c7
:101470000628a9000080fa004f03be004f02be00fc
:101480004f01be004f00be003600f90000400600cc
:101490000000fa005cc2a90017a8a9000080fa00a9
:1014a000004006000040da000000fe00ec87470024
:1014b0008e1f78006c87570044002000041f7800be
:1014c000000f78006c87570002afbe00e1bf9f009d
:1014d0006c805700130707001e00be004f077800fe
:1014e000cf00b10000000600ec8747008e1f780097
:1014f00011002000a1bf9f006c875700002f7800cb
:101500006c805700090707001e0078004f0778001d
:10151000cf00b100000006000800fa008e81e8004c
:1015200080097800640047000108780066004700e1
:10153000020878000000eb00000f780000000000b7
:10154000372807000004a2000004e000fcff3a0076
:101550000b00370000000000212807000004a20053
:101560000004e000fcff3a0064004700100078002f
:101570001e004000104078001e0fe80003280700fe
:1015800066004700100078009e007800808f5000b1
:10159000f0ff39001e0078000080fa00000006000d
:1015a000000005008f1fd1001f0007008f87e90092
:1015b0000000e00000000600809feb001a0007001a
:1015c0008f87e9000000e000000006001400200002
:1015d00050003700f4ff2f004e0037006022b800a3
:1015e000060220000000d0008180d2000482d200d8
:1015f0008582d2000000a0000202520083825a00bd
:10160000030031000202420083824a000000a10070
:101610000603e900f3ff3a0000000600efff0700b1
:101620000400be0000000600889fbe008a9fbe0026
:101630008c9fbe000404be000605be00809fbe0055
:10164000829fbe0021000700040678000800be004b
:101650000a01be001d000700840678004f03be008b
:101660004f02be008d4f76007fb09700130033000d
:10167000f0ff2f008b8f6b0006003b000d0666000d
:101680000c00a7000a00370007f0a6001000200099
:101690000a003700880f5200898f5a008a0f5b00ba
:1016a0008b8f5b00030039001000200001003e001a
:1016b0000000200007f0a7000000ea004f06be006f
:1016c0004f05be004f04be000000060005ff2700c6
:1016d00005826100070032000428e10001003200a9
:1016e000240005000600070001003a004400050040
:1016f0000408050002000700f9ff3a001400050085
:101700006f826100810270008502710085027200a3
:1017100000000600889fbe008a9fbe00841f7800dc
:10172000170007004f00780011003300f0ff2f0072
:10173000838f6c0006003b00040565000a00a700cb
:101740000800370009f0a60010002000080037004c
:10175000820f5400838f5c000300390010002000ca
:1017600001003e000000200009f0a7000000ea0090
:101770004f05be004f04be000000e0000000060060
:101780000004be00060007000003be000405be0002
:101790000200be0002000700844f75000000060032
:1017a000c70ade00f107b200f50fb20008003200f0
:1017b000e1cf4200020032000170a00024000500c9
:1017c000810f70000100320004080500440005008c
:1017d000810f700002003a00140005008502e90044
:1017e0000000400081c04800fcff3b000170a000e9
:1017f00024000500416d81009100780085000700fc
:10180000110020000000e00005003500406d81005f
:1018100090007800a0002000c9000700cf00de0083
:101820000100ea000000060000000600e0da2200e5
:1018300000000600fdff0700606d8900506d890003
:1018400000000600889fbe008a1f78008004780090
:101850004900900002047800800f54000100360017
:1018600000047800080178006a8544001a007800b6
:10187000940007001a004400000d7800e88444003a
:10188000990c14000048eb004f0578004f04be008f
:1018900000000600100078001fff37009001900044
:1018a0000388a30001003200e6ff37000348a300cd
:1018b00001003a00f7ff070000000600889fbe0005
:1018c0008a1f780000047800010578000000eb0012
:1018d0000800e0001a003200180090000058a30031
:1018e0000c003200ea04440068009000990f1000d8
:1018f00008003600b80990000001eb008200780073
:1019000008007800030001000080eb001900e000ef
:101910000b003200740044000008eb006c0044002f
:101920000008eb006a0044000008eb000000eb0038
:101930000a00e0000200320018007800eafe07000a
:101940004f0578004f04be0000000600889fbe00cf
:101950008a1f78000004be000000eb000800e000d1
:1019600029003200180090000058a3001200320035
:101970006a054400680090009a0f100008003600c5
:10198000b80990000001eb008200780008007800a0
:10199000030001000080eb001a00e0001a00320092
:1019a000740044000008eb006c0044000008eb00e9
:1019b0006a0044000008eb00780a900008109000cc
:1019c000800f52000600310000025200110020007a
:1019d000cfa2de00612bb90018007800b3fe07002b
:1019e00000022000080040000008eb007e004400d8
:1019f0000008eb000000eb000900e00002003200ec
:101a000018007800b8fe07004f0578004f04be00ac
:101a100000000600889fbe008a1f780080047800be
:101a200001057800090078004600070000047800ee
:101a30008a01780008017800110020000900780070
:101a40000a000700800078000080eb00888f5000bb
:101a500001003a000000eb004f0578004f04be0083
:101a60000000060010007800abfe3700889fbe0023
:101a70008a1f7800810478000204780089c5b900c3
:101a80000900e00001003a000004eb000a017800c0
:101a900080007800030078007eff07008000780057
:101aa0008a8f500003003200050009008980d800a9
:101ab00000047800080078004f0578004f04be004d
:101ac000000006008001780002003700b15978005c
:101ad0000201e9000200e000fcff3a0000000600fd
:101ae0000200fa000001780001007800e2ff9f0088
:101af000900090000188a30006003200ea01400037
:101b000093007800825878000280fb0081097800f9
:101b100009003700120020008f80e9005dff0700f8
:101b2000800078000080eb000100e000020032003d
:101b3000eff897000180fb000080fa00000006002b
:101b4000e7ff370080007800040037003104e00030
:101b500002003a0000005100000006000101780078
:101b60000108a300f9ff3a008101780031017800f3
:101b7000f4ef2f00020242000281ea00020162003b
:101b80000408280004016100f7ff32008300780098
:101b9000010178003104e000fdff3a00000051002f
:101ba000000006000000fa00cfb8970068815700d7
:101bb000406d810010007800e60107000080fa0007
:101bc00000000600040007005d0007000f01070089
:101bd0003701070091003700ec874700889fbe005f
:101be0008a9fbe008c9fbe008e1f78000006780082
:101bf00001047800180790002805900098067800e6
:101c0000cdb79f00b80590003202be002203be008f
:101c10000400be000601be004f18de006011b800cf
:101c20008000eb00d0b79f00e1b79f00f2b79f00a4
:101c300083bf9f00800478000900e00006003200a6
:101c40006000b8006011b80004025000858258009e
:101c500006035900878359000e00e000020035009a
:101c60000d10a100cdb79f000900e00005003a006b
:101c70004fb097000028a30002003a000038a300ec
:101c8000020032008a00e900010037008a00780073
:101c9000f8815700a20020000800780089000700a2
:101ca0000900e00003003a00cfb097000128a3002c
:101cb000080032000000e90000814500b1c2b30015
:101cc0000900e00001003200d1c2b30001497800f0
:101cd000060037000138a300040032000000e900cc
:101ce0008080450002c2b30082487800480190001d
:101cf0000201e90000015100808045004fb29700c9
:101d00008a0178000c007800b40107009c00900064
:101d10000188a3000400320098009000810f500059
:101d200001003d00010078004f0778004f06be001b
:101d30004f05be004f04be00cf00b10000000600fa
:101d40000200fa00889fbe008a9fbe00000578004e
:101d5000010478000200780018019000a8059000a6
:101d600098007800b1bf9f00b80490000200e00026
:101d7000020035000110a100b1bf9f00ea815700a9
:101d8000820020008b0078003002be002003be00dd
:101d9000080078004b0007003fb99700f000610091
:101da000040032000000e9008080440002c3b30058
:101db000824878003fb99700e800610004003200d3
:101dc0000000e9008080440002c2b300824878002d
:101dd000480190000201e9000001510080804400a8
:101de0003fba97008b0178000a0078007b0107005a
:101df0009a0090000188a30004003200980090002f
:101e0000810f500001003d00010078004f05be0029
:101e10004f04be000080fa0000000600ea87470079
:101e2000889fbe008a9fbe008e1f78000004780045
:101e3000030078007287570084e2260055c7260009
:101e4000049fbe00c3962200030f78006c875700e2
:101e5000004feb0011059000a1049000910578005f
:101e60000200e000020032000207780001003700a3
:101e7000728757000000e00002003a000e00780070
:101e800030ff07000a00e000030035008a0f500011
:101e9000010036000a0078000b0278008901780002
:101ea000000178008e007800080078004b010700e0
:101eb0004f0778004f05be004f04be00af00b100d1
:101ec00000000600f4874700889fbe008a9fbe007e
:101ed0008c9fbe008e1f78000605be000404be0065
:101ee00081bf9f0082b79f00f3b79f00b0009000b2
:101ef000e1b79f001301780092b79f009006900011
:101f0000400690000c06e9000d00e00001003d00d5
:101f10001d002000efb197000c8041000048eb004d
:101f20001e0020001f0037000c06e9000fb09700cc
:101f3000cf80de006109b900a0b79f00b1b79f0054
:101f4000c2b79f00d3b79f000203be000002be00cd
:101f50000800be000a01be001f0507000007780048
:101f6000efb097000c80400003c3b3000348470064
:101f70008d06e9000fb897000000e90080bf9f00c0
:101f80002fb29700bfb297004fb39700dfb397000f
:101f90000800be000a01be00080507000205be00d9
:101fa0000004be000c00e0000d003200e00f540001
:101fb000e08f5c00e00f5d00e08f5d00daff3a002b
:101fc0000d00e000d8ff3c008fb897000100e00052
:101fd000030034001fb197000218a300d2ff3a009b
:101fe0000e00e00002003a00ffb197001340a1008c
:101ff0000c0078004f0778004f06be004f05be006a
:102000004f04be004f01b100000006000200fa00bc
:10201000889fbe008a9fbe0080047800010478007b
:1020200002007800180190002805900098007800c0
:10203000b1bf9f00b80590000200e000020035002b
:102040000110a100b1bf9f00ea815700a20020004b
:102050008a0078003002be002003be00080078002d
:1020600098ff0700480190000201e90000015100bb
:10207000808045003fba97008a0178000900780007
:10208000d6000700990090000188a30004003200e8
:1020900098009000810f500001003d000100780081
:1020a0004f05be004f04be000080fa00000006008d
:1020b000fa874700889fbe008a9fbe008c9fbe00a3
:1020c0008e1f780080047800010478008205780073
:1020d000180190002805900018077800b8009000bb
:1020e0000200e000020035000e10a10001003700e0
:1020f0001200200070006700e0b79f000900320066
:102100003b02be002b03be00e00f5200e08f5a00de
:10211000e00f5b00e08f5b00020032008a86e9007e
:10212000010037008a067800e8026700f5b79f00d3
:10213000010032008d06e9003b02be002b03be0009
:10214000e4af9f00f5af9f0086b79f0097b79f0051
:10215000480690000c06e9000c8040000048eb00a7
:10216000efb297007fb2970089037800810478006e
:10217000d8af9f00020478008bbf9f008a057800cb
:10218000034578002b0037000c06e9006fab970081
:102190006f006300e90f500002003c000003b00034
:1021a000010037007005b0000a03fb001604b100ff
:1021b000f90f53000c003e00000378000650a00009
:1021c0001606b100f90f530007003e00b4b79f0098
:1021d000a5b79f00c7b79f00f0020700cfb39700d5
:1021e000afb297003fb297000c834400004b7800d9
:1021f0000804e9008d06e9006fa89700ffa8970082
:102200000fb197009fb19700460020008301d100d5
:102210000281d3008180d3000080d3000603e9004f
:10222000faff3a00e0af9f00f1af9f0082b79f0036
:1022300093b79f00e10f56000f0036006fa897007c
:10224000ffa897000fb197009fb19700e00f5000d3
:10225000e08f5800e00f5900e08f5900caff3a00a4
:102260000800e000c8ff3c000d00e0000200340060
:102270000e18a300c4ff3a0089007800f4b79f004d
:10228000870478005fac97008a4178000b057800de
:102290008fbd97000500e000120032003b02be0037
:1022a0002b03be00e4af9f00f5af9f0086b79f00f1
:1022b00097b79f00e00f5200e08f5a00e00f5b00dd
:1022c000e08f5b00070032000c06e9000c80400044
:1022d000034878000c06e9000c80400002c3b300fc
:1022e00002487800ffb297000500e00004003200c9
:1022f0000c06e9000c80400002c2b30002487800de
:10230000480190000201e9000c0151008c8040005e
:102310000e0278008a017800090078002f0007007b
:10232000990090000188a3000400320098009000fa
:10233000810f500001003d00010078004f07780038
:102340004f06be004f05be004f04be00af01b100f6
:10235000000006000200fa00881f780000047800e0
:10236000e2bf9f006481570008007800d101070098
:10237000980090000148a300010032000080eb00ab
:102380004f0478000080fa0000000600889fbe001d
:102390008a1f7800800478004900900002047800c9
:1023a000800f540001003600000478000801780016
:1023b0006a8544001a007800c2fd07001a00440034
:1023c000000d7800e8844400990c14000048eb00ec
:1023d0004f0578004f04be0000000600f28747005a
:1023e000889fbe008a9fbe008c9fbe008e1f780013
:1023f00080047800010578000204780083057800e5
:102400006107620002003a008b0f54000800390097
:10241000080178008a007800090078001ffd070095
:102420008b0f540002003900880578001e00370029
:10243000088655000c017800f00f560001003600a8
:1024400002012000010220007e805700b901070030
:102450008c0678000500370002012000fe8057003e
:10246000090078000dfd0700f0865600ef8f56003a
:10247000f9ff3e004461de0000ff2f008091b900ab
:102480000c014100fe8057000900780003fd0700a1
:102490000e00e00004003a00080178008a0078008d
:1024a00009007800fdfc07000b0078004f0778005a
:1024b0004f06be004f05be004f04be002f01b10005
:1024c00000000600000005000000050000000500f7
:1024d000000178000040eb008080fb00818040001c
:1024e00003e1220081814100134278000404e000ee
:1024f00004003a0010e12200810040001140780001
:102500000000060092017800934f520005003a0047
:1025100010e1220081004000114078000309e8002a
:10252000010037000040e800ea4f5000eaff3600a3
:1025300000000600f6874700889fbe008a9fbe0005
:102540008c9fbe008e1f7800800478000104780004
:1025500083057800040678000000eb00c0b79f00f8
:102560008080eb00d1b79f00e0b79f00f2b79f00db
:102570000008200080bf9f009800780001007800cc
:102580000005eb00010037000a05e8003041780043
:102590000204e0000300320053c2b300834f510035
:1025a000f9ff3a000a00e000040032000a01780056
:1025b00009007800b9fc0700180c450018077800de
:1025c00050c2b3009e4f100033013a000e07e800de
:1025d0000e0c780010003700cfb097000100a0006b
:1025e0000b003700cfb097000110a00008003700a3
:1025f000cfb097000120a00005003700cfb09700b2
:102600000130a00002003700cfb097000140a000c9
:10261000c1b79f00000ce8001800780090407800d7
:10262000b2c2b30082cf5000f1ff320007003c007d
:1026300002c2b30082cf5000f0ff320032c2b300ba
:1026400082cf500007003a00efff3700d2c2b3003c
:1026500082cf5000e0ff320002c3b30082cf5000af
:10266000e0ff3200a2c2b30082cf50000d003a005a
:10267000000ce8001c80e900000e780010007800d3
:10268000e0b79f000000e0000f003d00cfb09700d2
:102690000100a200c1b79f000000ea00e0b79f0060
:1026a0000900370090010700e0b79f0001003700e4
:1026b000000ce800180078009000fb000103b10056
:1026c000e98f5000faff36004fb097000008a300d2
:1026d000020032000010a100c0b79f00180078006f
:1026e000e1c2b30090cf100016003a008000eb006a
:1026f000d1b79f000000e800000c7800a1c2b30031
:1027000090cf100006003a00000ce8001c80e900a1
:10271000000e780010007800d0b79f000900370045
:1027200071010700d0b79f0001003700000ce800de
:10273000180078009000fb000103b100e98f500001
:10274000faff36000800780061ff07008046780035
:10275000180078001000fb00890107009106200096
:10276000810f50003800320012003c00410620006a
:10277000810f5000340032000a003c001106200096
:10278000810f50002000320031062000810f5000e0
:102790009a00320051022000810f5000ae003a0032
:1027a000a700370071062000810f5000aa003c00ee
:1027b0008200370001072000810f50005c003200ca
:1027c00007003c00e1062000810f50007400320039
:1027d000f1062000810f50009f003a0039003700b9
:1027e00051072000810f5000270032008107200090
:1027f000810f50004200320031072000810f50004d
:1028000095003a00850037008d80fb000c017800b0
:1028100000fe2f000f004000670107000000e000ed
:102820009c00320018007800000ce800904178000d
:1028300002fe2f000f014100f880570009007800c8
:1028400021ff07000e0037008d80fb008c0178000f
:102850001200200000fe2f000f004000750107004d
:102860000000e0008b003200180ce80002fe2f0090
:102870000f014100f880570009007800d6fc0700de
:1028800000054500840037008d80fb008c01780036
:102890000001eb0000fe2f000f0040006501070063
:1028a0000000e0007b003200180ce80002fe2f0060
:1028b0000f014100f880570009007800d3fd0700a0
:1028c000efff37008d80fb008c0178000001eb00ea
:1028d00000fe2f000f004000560107000000e0003e
:1028e0006c003200180ce80002fe2f000f014100be
:1028f000f88057000900780011fd0700e0ff37005d
:102900008d80fb008c0178000001eb0000fe2f00a1
:102910000f004000470107000000e0005d003200aa
:1029200018007800000ce80090417800160037008d
:102930008c0178000001eb00010f200000fe2f0049
:102940000f0040003b0107000000e0005100320092
:10295000180ce8000fb097009fb097002fb19700b8
:10296000bfb19700e00f5000e08f5800e00f590012
:10297000e08f590003003a008001eb00a2e0220042
:102980004000370083c7b30002fe2f000f01410053
:10299000f880570009007800c5fd0700b8ff370030
:1029a0000b0145008d80fb008c01780000fe2f009c
:1029b0000f00400078010700360037008d80fb00d3
:1029c0000c01780000fe2f000f004000fa00070005
:1029d0000000e0002f00320018007800000ce80032
:1029e0009041780002fe2f000f014100f88057004f
:1029f00009007800b4fe0700a1ff370000c8b3004b
:102a000080cf560023003a00180ce8001c80e90033
:102a1000000e7800104078000d00370000c8b300a9
:102a200080cf56001b003a00180ce8001c80e9001b
:102a3000000e78008001eb001001780011003700d3
:102a400001c8b30081cf560012003a00180ce8000c
:102a5000e0df9f000800370050c2b300e0df9f00b6
:102a60000e0c78000000eb00c0b79f00e0b79f009d
:102a70008080eb00d1b79f0013002000e2fd2f0003
:102a80000f014100f880570009007800e3fc0700bf
:102a90007bff3700180ce8000a0078004f07780029
:102aa0004f06be004f05be004f04be006f01b100cf
:102ab000000006008200fa00889fbe008a1f78008e
:102ac0000005780082047800c13f9f000004eb00fd
:102ad000100037000902780088017800a2f72f0063
:102ae0000f01410081f72f008f8040000a0078001d
:102af00090fe070008004000880f500004003d00d1
:102b0000b0042000207389000084eb00040037002b
:102b1000000478004f3897001004e000edff3a0001
:102b2000080078004f0578004f04be000080fa00ce
:102b300000000600889fbe008a9fbe0080047800c7
:102b40000200e0005a00320001407800814c780019
:102b500082814400f1f99f00e20f510054003600d9
:102b600091449800a1449800e1f99f00d1f99f0099
:102b7000e60f51004e003600b1449800c1f99f00a5
:102b8000e80f51004a0036000905ea0063056500b8
:102b90000a8444000a055100c1ff2f0001056500a9
:102ba0000080fb008000eb001210200013102000ba
:102bb00056010700008cbe000a01440060b99f0066
:102bc00071b99f00e80f55003900360020049800c5
:102bd00031049800400498005104980020b99f00e7
:102be00031b99f0040b99f0051b99f00f80f5500bf
:102bf0002f0036006004980071049800000c9800c3
:102c0000110c9800200c9800310c9800400c980092
:102c1000510c980020b19f0031b19f0040b19f003e
:102c200051b19f0060b19f0071b19f0000b99f003a
:102c300011b99f006401640078014100020444005e
:102c4000020555006011b8000203be000002be007c
:102c50000403be006022b800000072008180720090
:102c600002017300838173000f00370008027800af
:102c7000009abe00029abe00009abe000292be00f8
:102c8000000c9800110c9800220c9800330c98004e
:102c9000400c9800510c9800620c9800730c98003e
:102ca0000a02b1000802b000ff0f5500efff3e001e
:102cb000090078004f05be004f04be00000006006a
:102cc000800078001000200002022000828f500057
:102cd00004003200e9805000e48f5000010036000b
:102ce0000000eb0000000600889fbe008a1f7800ed
:102cf0008004780009047800880478003945780059
:102d00000a00fb00eeff07000000e000f9ff3a00b8
:102d1000b0c2b300804f550005003200d0c2b300ee
:102d20008000eb00804f550005003a00020037009c
:102d30008000eb0001003700110020000804e800cb
:102d40000000eb0003003700ea00b9000200500069
:102d50000003b0003801fb0003fd2f008281410019
:102d6000e98f5100f8ff36000100e00001003a0051
:102d70000000ea004f0578004f04be000000060086
:102d8000f1fb2f0080804000f98f500001003e00d1
:102d90000050a00000000600f9ff3700f1f92f00f5
:102da00080804000f98f500001003e00f005b20025
:102db00000000600f9ff3700881f78000004780043
:102dc00000082000808f50001700350010082000f8
:102dd000808f50000b00340030082000808f50009e
:102de00011003a00920078006880500000097800d5
:102df0003002be002003be00049cbe000694be004c
:102e000007003700920278006480520000097800c1
:102e10001000be009e000700009cbe000294be0091
:102e200010002000010037000000eb004f04780084
:102e30000000060084082000848f50001d0032002e
:102e40000d003c0014082000848f50002700320041
:102e500002003c0004082000040037002408200081
:102e6000848f50002a00320044082000848f5000d4
:102e700048003a003b003700040a2000848f5000cd
:102e80002c00320004003c0004092000848f500014
:102e900040003a002d003700020c2000828f5000c5
:102ea0001e003200020f2000828f500039003a00cd
:102eb000300037009380e9000200e0000500320096
:102ec000810978001102fb00cfa2de00612bb9005e
:102ed0002d00370081097800114278000482fb0040
:102ee0008002eb006033b80027003700130278003f
:102ef000e40052000200e0000a003200810978007c
:102f00001102be004fabde00860378001e003700c2
:102f100093027800e88052000e0037009302780098
:102f2000e4805200810978001102be006033b800cd
:102f3000150037009380e9008109780011027800bc
:102f4000cfa2de00612bb9000f0037001303780019
:102f5000e8005300810978003102be002103be0061
:102f6000090037009380e9000200e000020032000f
:102f7000f1ff37009380e9008109780011027800a1
:102f80008002eb006033b8000498be000690be00db
:102f9000100005000000050044082000848f500048
:102fa000270032000a003c0014082000848f5000e3
:102fb0001c00320024082000848f500026003200bc
:102fc00004082000848f50002c003a001c003700b9
:102fd00004092000848f50001f00320004003c00d0
:102fe00084082000848f500024003a000700370036
:102ff000040a2000848f500011003200040c2000cd
:10300000848f50001d003a00060037009380e900cd
:1030100081097800910078000108780082487800e2
:10302000150037009380e90081097800910078004d
:1030300001087800cf91de008288be000e003700c4
:103040009380e900810978009100780001087800f8
:1030500082087800080037009380e9008109780031
:1030600091007800010878006112b900612bb90065
:103070008498be008690be00100005000000050088
:1030800000000600ebf90700fdff0700fcff37001a
:1030900081037800c2f907000001be006000b8009b
:1030a0000478a30013003a006220e10015003e00fe
:1030b0000d0039008301d1000281d3008180d3004b
:1030c0008301d1000281d3008180d3008301d1002c
:1030d0000281d3008180d3000538b000c42add000e
:1030e000f300b2008381720007f0a70003f0a00094
:1030f0000000060083ff2700020020006110b900d5
:10310000f9ff370003ff2700f7ff3700020ab90075
:10311000001bb9000200b80081004200810043009a
:103120000000060000c0da000000060000c0da005f
:1031300000000600889fbe008a9fbe003004420047
:10314000b0844a0030054b0090854b006000b10010
:103150000898be000a90be000440e10005c8e100e6
:1031600006d0e10007d8e10002003100680040000d
:103170001008e8004f05be004f04be000000060026
:10318000889fbe008a9fbe003004be002005be009e
:103190000418540005985c0006185d0007985d004f
:1031a000110020000440e10005c8e10006d0e10064
:1031b00007d8e100010039008000eb001088100002
:1031c0004f05be004f04be0000000600f487470014
:1031d000889fbe008a9fbe008c9fbe008e1f780015
:1031e000d0b79f00e1b79f00f2b79f0083bf9f0059
:1031f0000605be000404be00cfae97000000eb0041
:10320000c0b79f00b0b79f00a0b79f0090b79f00c6
:1032100080b79f00000678004fb097000001400083
:103220000000e00006003d003c0007000f074700db
:10323000450007000f004000beff070005003700f3
:10324000360007000f0747003f0007000f0040004f
:10325000cbff07004fb797000e00e0000c003500d1
:103260005fb29700efb297007fb397008fbb9700d4
:1032700010002000010020006011b8000002720060
:103280008182720002037300838373001c000700b5
:103290000c06e80001042000810f5600deff3a0012
:1032a0000e00e00005003d000802be000a03be005b
:1032b00000fe2f000f0040009eff07000d00e00001
:1032c00005003a000fb297009fb297002fb3970006
:1032d000bfb397000a0007005fb09700efb09700f8
:1032e0007fb197008fb997004f0778004f06be0057
:1032f0004f05be004f04be004f01b10000000600a4
:10330000010007000000060094b79f00a5b79f00ca
:10331000b6b79f00c7b79f00000006009fb0970098
:103320004f08de0002017000a2b79f000fb09700a7
:103330004f01de00818040008100710091b79f0045
:103340000efe2f0000000600de0078004f09de00b0
:10335000000040000000710080b79f006fa8970038
:103360004f01de0081804000010f71000e00070058
:103370004f3ade000000400004007000e0af9f0004
:10338000090007000402420085824a0006034b0040
:1033900087834b00dcff07000802be000a03be0063
:1033a00000fe2f00000006001fb29700afb297008a
:1033b0003fb39700cfb3970000000600881f780046
:1033c00018002000881f780080ff07008f87e90021
:1033d0004f04780000000600801feb007bff070011
:1033e0008f87e90000000600889fbe008a9fbe000c
:1033f000e00f5000e08f5800e00f5900e08f5900b7
:103400000c003d006044b8006055b8000000540056
:1034100081805c0002015d0083815d001800200056
:103420001500070008003d00180007000004eb002d
:10343000050037000004eb000f00070002003d000c
:103440001200070018002000dcff07000800e00061
:10345000060032006022b8006033b800000052005d
:1034600081805a0002015b0083815b004f05be0032
:103470004f04be0000000600e00f5200e08f5a002b
:10348000e00f5b00e08f5b00000006006044b800c6
:103490006055b8000402540085825c0006035d009c
:1034a00087835d0000000600889fbe008a9fbe00e3
:1034b0008c1f7800e00f5000e08f5800e00f59009b
:1034c000e08f59000d003d006044b8006055b80021
:1034d0000000540081805c0002015d0083815d007a
:1034e0001c0020000820e10009a8e1000ab0e1006a
:1034f0000bb8e1000d003d00080037000006eb00ae
:10350000e00f5200e08f5a00e00f5b00e08f5b009d
:1035100006003d006044b8006055b8000402540045
:1035200085825c0006035d0087835d00aaff0700bb
:103530000c00e000060032006022b8006033b800e2
:103540000000520081805a0002015b0083815b0011
:103550004f0678004f05be004f04be000000060075
:020000040000fa
:10356000ec380000f8390000a82d00009c2d000068
:10357000b42d0000c02d0000cc2d0000d82d00007f
:10358000e42c00000e2e0000442e0000aa2e0000a5
:10359000e02e00004c2f0000e22f000066300000fb
:1035a000ac300000d2300000f83000001e310000c6
:1035b000443100007a310000b0310000f8310000e1
:1035c0002e320000da320000323400008633000070
:1035d00000000000000000000000000000000000eb
:1035e0000000000000000000be2c0000982c00002d
:1035f0002c3600006236000098360000a835000026
:10360000ce350000c6380000ce3600004c37000032
:10361000ca37000048380000cc3a00000000000023
:10362000e63a0000000000000d0a000020530000f0
:10363000544100005254000020410000435100005a
:103640005549000053490000544900004f4e000006
:10365000200d000000250000643b00002000000059
:10366000256400003b0d00000a00000053700000bc
:1036700065650000642000003d2000002564000016
:103680000d0a0000000d00000a2000002a2a000098
:103690002a20000053540000415200005420000032
:1036a0002a2a00002a2a00002a2000000d0000001b
:1036b0005c4a0000e04a00007a4a00000000000076
:1036c000de460000fe4600001e4700003a470000ac
:1036d0000000000008490000cc49000086470000b7
:1036e00056480000ee450000f6450000fe4500008b
:1036f000064600000e460000164600004046000048
:1037000086460000a4460000ac460000b446000017
:10371000bc460000284a0000404a0000589b0000b8
:10372000d4560000265700004c5700007657000082
:10373000ba570000d05700000a5800003a5800005d
:10374000425800004a580000705800008858000095
:10375000a0580000b6580000d2580000645900007c
:10376000d4590000e2590000fa590000125a000032
:103770002a5a0000425a00005a5a0000725a0000a9
:10378000925a0000a85a0000c65a0000dc5a0000f5
:10379000f05a0000105b0000325b00003a5b000052
:1037a000425b0000685b0000805b0000405c000042
:1037b000565c0000725c0000045d0000985b000035
:1037c00000000000000000000000000000000000f9
:1037d0000000000000000000ffff0000e4200000e7
:1037e000682000001e240000d2240000962c000057
:1037f00000000000000000000000000000000000c9
:103800000000000000000000010000001c1100008a
:103810000000000000000000ca660000d266000040
:10382000da6600005666000082660000ba66000094
:10383000c2660000a2660000ea660000026700009f
:103840000c9c0000e0670000f467000002680000c4
:103850000e68000018680000c2670000cc67000016
:103860002468000042680000000000008060000042
:10387000b2600000e0600000ec600000f860000052
:10388000346000005a6000002261000040610000c6
:103890000000000044650000632000003138000093
:1038a000203200003031000039310000303a000091
:1038b000333400003a3100003300000090810000f2
:1038c000878200008885000086000000000000005c
:1038d00000000000030000000000000000000000e5
:1038e000206a00002e6a0000f4690000fc690000f4
:1038f000046a000000000000a46a0000b06a000032
:103900007a6a0000826a00008a6a000000000000f3
:10391000646a0000706a0000386a0000406a0000b3
:08392000486a000000000000ed
:020000040000fa
:103928001800fa00889fbe008a9fbe008c1f78008e
:1039380000067800f4af9f0085b79f0096b79f00f8
:10394800a7b79f002c709000ef4060000068a300ac
:103958000b003200e4cf50003b003200e8cf5000ab
:103968004e0032000046eb000c4078004f0678000d
:103978004f05be004f04be000080fa00000006009c
:103988000058a30018003200e2cf50006700320050
:103998008c003e00e1cf5000f2ff3a008c699000a5
:1039a8000c6090006fda97003c299000e10f5100fd
:1039b800250132000046eb0080cf5100eaff3400b9
:1039c80001467800844f5000e6ff35000c4078002f
:1039d8004f0678004f05be004f04be000080fa0075
:1039e80000000600e6ff3700e2cf50006200320018
:1039f800a6003e00e1cf5000daff3a008c69900043
:103a08000c6090006fda97003c299000e10f51009c
:103a1800000132000046eb0080cf5100d2ff360093
:103a280001467800844f5000ceff39000c407800e2
:103a38004f0678004f05be004f04be000080fa0014
:103a480000000600ceff37004c109000dc109000fc
:103a58000c1490009c1490007fad97008fb59700d0
:103a68003c2e9000e10f5600870132000801be008d
:103a7800d6f607000000e000baff34001cc0b3000f
:103a88000801be000a00be00cef607000000e000f4
:103a9800b5ff34000046eb00b3ff37004c10900030
:103aa800dc1090006c119000fc1190000c14900038
:103ab8009c1490002c159000bc1590007faa9700cc
:103ac8008fb297001fb39700afb39700b4b79f00aa
:103ad800c5b79f00d6b79f00e7b79f003c2e900060
:103ae800e10f5600530132000802be000a03be006f
:103af800aff607000000e0009aff34001cc0b300d6
:103b08000802be000a03be003fb09700cfb097007e
:103b18005fb19700efb19700a0f607000000e00042
:103b280091ff34000046eb008fff37004c119000e6
:103b38000c109000ffa99700bc289000e18f50005e
:103b4800db0032000046eb00800f510086ff340096
:103b58001cc0b300830f500082ff35000c40780072
:103b68004f0678004f05be004f04be000080fa00e3
:103b78000000060082ff37004c1190000c109000e6
:103b8800ffa99700bc289000e18f5000bb003200cd
:103b98000046eb00800f510073ff36001cc0b300d5
:103ba800830f50006fff39000c4078004f067800f3
:103bb8004f05be004f04be000080fa00000006005a
:103bc8006fff3700e4cf50007a003200e8cf500092
:103bd80064ff3a004c149000dc1490006c159000bf
:103be800fc159000f8b79f0089bf9f009abf9f00ff
:103bf800abbf9f000c1090009c1090002c119000ff
:103c0800bc119000b4b79f00c5b79f00d6b79f00fe
:103c1800e7b79f00bc2a9000e18f5200ea0032000b
:103c28000046eb007fb497008fbc97001fbd97003c
:103c3800afbd97000040e10001c8e10002d0e100fb
:103c480003d8e10048ff34001cc0b3003fb297001e
:103c5800cfb297005fb39700efb397000400e1007d
:103c68000588e1000690e1000798e1003dff350076
:103c78000c4078004f0678004f05be004f04be0088
:103c88000080fa00000006003dff3700e4cf500036
:103c980030003200e8cf500032ff3a004c14900058
:103ca800dc1490006c159000fc159000f8b79f008c
:103cb80089bf9f009abf9f00abbf9f000c10900068
:103cc8009c1090002c119000bc119000b4b79f007c
:103cd800c5b79f00d6b79f00e7b79f00bc2a9000e2
:103ce800e18f52009d0032000046eb007fb4970040
:103cf8008fbc97001fbd9700afbd97000040e10043
:103d080001c8e10002d0e10003d8e10016ff360047
:103d18001cc0b3003fb29700cfb297005fb39700c3
:103d2800efb397000400e1000588e1000690e10088
:103d38000798e1000bff39000c4078004f06780027
:103d48004f05be004f04be000080fa0000000600c8
:103d58000bff37004c129000dc1290000c10900002
:103d68009c1090007fab97008fb397003c29900080
:103d7800e10f51006a0032000046eb00800f52004c
:103d8800818f5a00f8fe36001cc0b300860f500021
:103d9800878f5800f3fe39000c4078004f067800f2
:103da8004f05be004f04be000080fa000000060068
:103db800f3fe37004c129000dc1290000c109000bb
:103dc8009c1090007fab97008fb397003c29900020
:103dd800e10f5100430032000046eb00800f520013
:103de800818f5a00e0fe34001cc0b300860f5000db
:103df800878f5800dbfe35000c4078004f067800ae
:103e08004f05be004f04be000080fa000000060007
:103e1800dbfe37000046eb0080cf5100d2fe3100b8
:103e280002467800844f5000cefe3e000c407800d9
:103e38004f0678004f05be004f04be000080fa0010
:103e480000000600cefe37000046eb0080cf510090
:103e5800c5fe3d0002467800844f5000c1fe3c007c
:103e68000c4078004f0678004f05be004f04be0096
:103e78000080fa0000000600c1fe37000046eb0093
:103e8800800f5100b8fe310001467800830f5000c2
:103e9800b4fe3e000c4078004f0678004f05be0087
:103ea8004f04be000080fa0000000600b4fe370090
:103eb8000046eb00800f5100abfe3d000146780044
:103ec800830f5000a7fe3c000c4078004f06780096
:103ed8004f05be004f04be000080fa000000060037
:103ee800a7fe37000046eb00800f5200818f5a0072
:103ef8009dfe3d0002467800860f5000878f5800cf
:103f080098fe3c000c4078004f0678004f05be0034
:103f18004f04be000080fa000000060098fe37003b
:103f28000046eb00800f5200818f5a008efe310050
:103f380002467800860f5000878f580089fe3e00a1
:103f48000c4078004f0678004f05be004f04be00b5
:103f58000080fa000000060089fe37000046eb00ea
:103f68007fb497008fbc97001fbd9700afbd970027
:103f78000040e10001c8e10002d0e10003d8e100ff
:103f880079fe3100054678003fb29700cfb297001e
:103f98005fb39700efb397000400e1000588e100e4
:103fa8000690e1000798e1006efe3e000c407800a4
:103fb8004f0678004f05be004f04be000080fa008f
:103fc800000006006efe37000046eb007fb4970045
:103fd8008fbc97001fbd9700afbd97000040e10060
:103fe80001c8e10002d0e10003d8e1005efe3d0017
:103ff800054678003fb29700cfb297005fb39700ad
:10400800efb397000400e1000588e1000690e100a5
:104018000798e10053fe3c000c4078004f067800fa
:104028004f05be004f04be000080fa0000000600e5
:1040380053fe37000802be000a03be0057f507000a
:104048000000e00047fe3d000802be000a03be0073
:104058003fb09700cfb097005fb19700efb19700de
:1040680053f507000000e0003efe35000c407800e4
:104078004f0678004f05be004f04be000080fa00ce
:10408800000006003efe37000801be004df507009f
:104098000000e00033fe3d000801be000a00be003b
:1040a8004af507000000e0002efe35000c407800bd
:1040b8004f0678004f05be004f04be000080fa008e
:1040c800000006002efe3700889fbe008a9fbe00b3
:1040d8000088eb008001eb00130098000042eb0021
:1040e800235098002300980034509800330098001b
:1040f800445098004300980054509800530098008a
:1041080064509800630098007450980073009800f9
:10411800045898000308980014589800510898000b
:104128006044b8006055b80008109800191098004d
:104138002a1098003b1098004810980059109800d1
:104148006a1098007b109800031898002470980053
:10415800231898006033b80036189800471898005c
:104168002478980034789800631898007318980099
:104178000320980024c09800262098003720980033
:10418800462098005720980044c898007620980048
:10419800072898001228980023289800110020006a
:1041a800312898006208980073089800619280008e
:1041b800c00898004f05be004f04be00000006006e
:1041c8000800fa00889fbe008a9fbe008c9fbe0030
:1041d800000678002c189000e60f500019003e00e9
:1041e800e50f5000370039008c1890002c709000b3
:1041f8006f406000e24f50008201320031013e0002
:10420800e14f50004e0132006fb29700ffb29700a5
:104218000fbb97009fbb97000c007800c0fd0700fc
:104228000004e0001901320040002000201e980020
:104238004f06be004f05be004f04be000080fa00c6
:1042480000000600e70f500084003200e80f50001d
:10425800f7ff3a007c189000ec1890000001e80085
:10426800721e9800810f5000f1ff39000000eb002a
:10427800701e98002c7890000080fb008000eb00f6
:104288004c219000dc219000000041008180490011
:104298004026980051269800e00f5000e08f580003
:1042a800e3ff350020002000201e98004f06be00c6
:1042b8004f05be004f04be000080fa000000060053
:1042c800e0ff3700e20f5000a4003200e40f500076
:1042d800d8003200e10f5000d5ff3a007c1890005a
:1042e800ec1890000001e800721e9800810f500041
:1042f8002d0039000000eb00701e98003c1990005a
:10430800cc1990002c7a90000482fb008002eb000c
:1043180004024100858249006c089000fc08900066
:10432800800f5200818f5a00030036006011b800d8
:10433800321e9800431e98008046eb008d83fb00d8
:104348000040eb000703e800f28343000603430044
:10435800dc0890000082fb00ec027b00e5427a005a
:104368008570790061014100e0814900321e9800a2
:10437800431e98000040e800ecc07b00814f5000cd
:10438800f3ff39008d46e8003c78900080cf560056
:10439800eaff39007c2090008c289000820f5000a2
:1043a800838f5800e30036008c1890002c70900022
:1043b8006f406000e24f50001a013200cc003e000e
:1043c800e14f5000f10032000802be000a03be00af
:1043d8000c00780052fd07000004e000a100320044
:1043e8004cc890000004e0009e0032002c20900091
:1043f800bc209000e00f5000e08f5800e800350026
:104408003c189000cc189000e00f5000e08f580046
:10441800f00032007c1990000200e000f4003a003d
:104428002c7990000281fb008001eb000200500013
:10443800838058004026980051269800700020007c
:10444800201e98004f06be004f05be004f04be0058
:104458000080fa00000006007aff37007c18900000
:10446800ec1890000001e800721e9800810f5000bf
:104478006fff39000000eb00701e98003c19900097
:10448800cc1990002c7a90000482fb008002eb008b
:1044980004024100858249006c089000fc089000e5
:1044a800800f5200818f5a00040036006033b80034
:1044b800361e9800471e98006011b8000044eb00b3
:1044c8008883fb000040eb000703e800f283430009
:1044d80006034300dc0890000082fb00ec027b002e
:1044e800e5427a008570790061014100e081490068
:1044f800321e9800431e98000040e800ecc07b0084
:10450800814f5000f3ff39000844e8003c789000e0
:10451800804f5400eaff39004c209000dc209000c6
:1045280002015000838158002c209000bc2090008c
:10453800800f5100818f590074003e000000eb008d
:10454800201e98004f06be004f05be004f04be0057
:104558000080fa00000006003aff37007c1890003f
:10456800ec1890000001e800721e9800810f5000be
:10457800270039000000eb00701e98003c199000dd
:10458800cc1990000044eb008883fb000040eb004e
:104598000703e800f283430006034300dc089000a9
:1045a8000082fb00ec027b00e5427a00857079000e
:1045b80061014100e0814900321e9800431e9800c5
:1045c8000040e800ecc07b00814f5000f3ff390049
:1045d8000844e8003c789000804f5400eaff390016
:1045e8002c7890000080fb008000eb000201400066
:1045f800838148006c089000fc089000800f5100ef
:10460800818f5900020036000000eb00201e980040
:104618000c2090000000e800002698004f06be001d
:104628004f05be004f04be000080fa0000000600df
:1046380004ff37000c2090000000e80000269800d6
:104648007c1890000000e800701e98004f06be001d
:104658004f05be004f04be000080fa0000000600af
:10466800f8fe370048169800591698006a16980000
:104678007b1698004f06be004f05be004f04be00d3
:104688000080fa0000000600eefe37006fb09700c9
:10469800ffb097000fb997009fb997004016980090
:1046a8005116980062169800731698004f06be00bf
:1046b8004f05be004f04be000080fa00000006004f
:1046c800e0fe3700e44f500026003200e84f50006b
:1046d800cdfe3a003102be002103be00e4b79f00c0
:1046e800f5b79f0086bf9f0097bf9f00c6fe3700a3
:1046f800e44f500022003200e84f500032ff3a00e9
:104708003104be002105be002fff37001c2a90008f
:10471800ac2a90000201420083814a00820f5000b7
:10472800838f5800c2fe39000000eb00201e98005d
:1047380084ff370010c0b30040ce98001aff37003e
:10474800114078000082fb008002eb006033b80063
:10475800e4b79f00f5b79f0086bf9f0097bf9f00f3
:10476800a9fe37001102be006033b800e4b79f000d
:10477800f5b79f0086bf9f0097bf9f00a2fe370036
:104788001104be006055b8000fff370011447800cf
:104798000884fb008004eb006055b8000aff37006e
:1047a80040269800512698006022b800341e9800d0
:1047b800451e980080002000201e98004f06be006d
:1047c8004f05be004f04be000080fa00000006003e
:1047d8009cfe37002c7890000080fb008000eb00e6
:1047e8001c299000ac2990000000510081805900dc
:1047f800402698005126980070002000201e98003e
:1048080010ff3700110078006102b8006033b8006b
:10481800e4b79f00f5b79f0086bf9f0097bf9f0032
:1048280079fe3700110478008004eb006055b80069
:10483800e5fe37004071900082487800307a900099
:104848009440980040799000a2409800507a9000d7
:10485800b440980060719000c240980030199000f0
:10486800c0199000481add004811de0002017200ec
:10487800c819de00d240980000799000e240980004
:10488800107a9000f44098002059900082489800cf
:1048980050099000cf91de00481add004811de0073
:1048a80002017200c819de00924898005009900071
:1048b800cf91de00a348980050099000cf91de0008
:1048c8004819de00b248980040c19000c2489800dc
:1048d80020219000b0219000481add004811de0028
:1048e80002017200d248980060c19000e248980026
:1048f80070c29000f448980000c990008250980057
:1049080040219000d0219000481add004811de00b7
:10491800020172009250980020c99000a25098009d
:1049280030ca9000b450980020d19000c25098002e
:1049380010299000a0299000481add004811de00d7
:1049480002017200c819de00d250980040d19000d0
:10495800e250980050d29000f450980040599000ce
:104968008258980060099000f0099000481add000c
:104978004811de0002017200c819de009258980042
:1049880060599000a258980070589000b05898004c
:1049980020c8b300c0589800d00105006f02b000cd
:1049a800889fbe008a9fbe008c9fbe008e1f780025
:1049b8000004be00824678001ac0b300e3cf560058
:1049c800c6003600090678005c407800e84f5000c1
:1049d800c2003e000004e000c00032008000eb008e
:1049e800211c98000040eb00317c980001249800bd
:1049f8006011b800321c9800431c9800394190009f
:104a08004811dd00a94090008180fb008100410031
:104a1800611c9800711c98006022b8006033b800cf
:104a28004414980055149800661498007714980058
:104a3800207c980021c0b30021c4980040cc980085
:104a48006022b80044249800552498001c04e00013
:104a5800a70232004ac0b300804578000c077800ee
:104a6800ede79f008a40e8000a80fb006940780073
:104a7800e14f5000e10032009f0031008b86fb00bf
:104a88008180fb000d00e800000040000186440022
:104a98001c4190000281fb008001eb00481add00f8
:104aa800c812de00850272004812dd002c41900019
:104ab8008281fb0002002000040241008582490037
:104ac80069c178000281fb008001eb00040141000c
:104ad80085814900023478004c4090008d064400de
:104ae800a05698002879900002414000227c980046
:104af800a8c0900000c0400020c49800680e900034
:104b0800f80e90000281fb008001eb000c00be0053
:104b1800c0f207000000560081805e00102c98004b
:104b2800212c9800664545008b45e8009ecf15006e
:104b3800ccff3e000e067800efe697008a80fb0067
:104b48000a45e8000a80fb008a45e800e9c07800c9
:104b5800e1ef9f002174980069407800e14f500010
:104b6800830232006f0131000b82fb000480440095
:104b7800104190000281fb008001eb00481bdd0022
:104b8800c813de00870373004813dd00204190003e
:104b98008281fb0002002000060341008783490050
:104ba80069417a000281fb008001eb0006014100a7
:104bb80087814900021c98006feb9700e4c5450007
:104bc800fbef9f006f476300e24f570085023200fa
:104bd8009e013e00e14f57004b003a00ffeb970063
:104be8008781fb0069c279000482fb008002eb0028
:104bf8006033b8000414980015149800261498001f
:104c080037149800efea97000504e0008c0135009e
:104c1800854078000154a000217498007feb97002c
:104c2800644543000a81fb008280440011429000e1
:104c38000482fb008002eb00482bdd00c823de0065
:104c4800870373004823dd00214090008082fb0029
:104c5800040020000603420087834a006941790066
:104c68000282fb008002eb000601420087814a00b5
:104c780031409000c800dd00000020000200400024
:104c8800838048002024980031249800431f07009f
:104c980070249800012c9800644045000080fb00b7
:104ca800694078000080fb00302c9800654545007d
:104cb8008acf56003b0136000a85fb0069407d001b
:104cc800e14f5000710032001c4678003c7c98008f
:104cd8001980fb00201c98000045eb000a40780072
:104ce8004f0778004f06be004f05be004f04be00b8
:104cf8006f02b10000000600e24f500025003200ac
:104d0800e34f5000090032001ac0b3000a4078008f
:104d18004f0778004f06be004f05be004f04be0087
:104d28006f02b10000000600f3ff37008180fb002e
:104d380001864400ac409000bc4190006092800025
:104d4800100178000200e000efff3200c819dd0012
:104d58008180fb008181410092007800818f5100a1
:104d6800710032000100e000e7ff320064004100fa
:104d78000001780090007800818f51006a003200ad
:104d8800640040000100e000f9ff3a001ac0b300d7
:104d9800deff37008180fb0001864400ac409000b4
:104da800bc41900060928000100178000200e00091
:104db800d5ff3200c819dd008180fb0081814100e8
:104dc80092007800818f5100b50032000100e000a8
:104dd800cdff3200640041000001780090007800a7
:104de800818f5100ae003200640040000100e000f5
:104df800f9ff3a001ac0b300c4ff37008180fb00f6
:104e0800e9c17800018644001c429000ac40900043
:104e18003c43900062928000920278000500e00016
:104e280008003a00004078004f0778004f06be009f
:104e38004f05be004f04be006f02b100000006001f
:104e4800adff37004833dd008180fb0001034300dc
:104e580095007800810f5300540032000100e000f3
:104e6800f0ff3200648042008002780090007800f1
:104e7800810f53004d003200640040000100e00043
:104e8800f9ff3a001ac0b300a0ff37008818900055
:104e9800287090006f406000e24f5000820232009c
:104ea8006e023e00e14f50000e0032007fa09700d6
:104eb8008fa897001fa99700afa9970040149800e2
:104ec8005114980062149800731498001c467800d6
:104ed8003c7c98001980fb00201c98000045eb00e2
:104ee8007eff3700114078000082fb008002eb0053
:104ef8006033b800f4a79f0085af9f0096af9f006e
:104f0800a7af9f007fa097008fa897001fa99700c1
:104f1800afa99700401498005114980062149800a3
:104f280073149800e9ff37000100e00076ff3200b3
:104f3800920090000100e00073ff32008b86fb00b6
:104f48000d00e80000004000113478004c4090004b
:104f58008d064400a0569800287990000241400030
:104f6800227c9800a8c0900000c0400020c498008f
:104f7800680e9000f80e90000281fb008001eb00a3
:104f88000c00be00a3f107000000560081805e00ff
:104f9800102c9800212c9800664545008b45e800a8
:104fa8009ecf1500affe3e00e2fe37000100e00094
:104fb80055ff3200150090000000e00052ff32005b
:104fc800100378009202900015017800820f5300b8
:104fd8000c0032000200e0004bff3200ec8042007f
:104fe8008102780011017800820f53000500320019
:104ff800ec8040000200e000f9ff3a001ac0b3005c
:1050080042ff37000200e0003fff32000500e000e9
:105018003dff32008b86fb00c820dd008381fb004a
:105028008380400055019000020001008d00e800d7
:105038008180400000b478000000e00032ff3200b8
:105048004c4090008d064400a056980028799000a6
:1050580002414000227c9800a8c0900000c0400097
:1050680020c49800680e9000f80e90000281fb00a2
:105078008001eb000c00be0066f10700000056003e
:1050880081805e00102c9800212c98006645450010
:105098008b45e8009ecf150072fe3e00a5fe370046
:1050a8000100e00018ff3200920090000100e000cb
:1050b80015ff32008b86fb000d00e8000000400061
:1050c800013478004c4090008d064400a0569800aa
:1050d8002879900002414000227c9800a8c09000e6
:1050e80000c0400020c49800680e9000f80e9000a0
:1050f8000281fb008001eb000c00be0045f10700b7
:105108000000560081805e00102c9800212c980029
:10511800664545008b45e8009ecf150051fe3e00d0
:1051280084fe3700e24f5000f5003200e34f500094
:10513800f5fe3a000b80fb000080440020429000fe
:105148003041900060928000900178001ac0b3004e
:105158000300e000e1fe32004811dd000482fb009c
:105168000402410013017800820f520088013200c6
:105178000200e000d9fe320064804100efe89700a9
:105188008001780010017800820f52007f01320000
:10519800640040000200e000f9ff3a001ac0b300c2
:1051a800dafe370088189000287090006f40600081
:1051b800e24f50004c01320038013e00e14f5000f0
:1051c8000e0032007fa897008fb097001fb197009c
:1051d800afb19700401498005114980062149800d9
:1051e800731498001c4678003c7c98001980fb00da
:1051f800201c98000045eb00b8fe370011407800ed
:105208000082fb008002eb006033b800f4af9f001f
:1052180085b79f0096b79f00a7b79f007fa8970004
:105228008fb097001fb19700afb197004014980056
:10523800511498006214980073149800e9ff37001d
:10524800ffeb97000745470076fe3700e44f57000d
:10525800f3003200e84f5700abfe3a007fe89700b2
:105268000085fb008a80440081bf9f009145900023
:105278000b82fb008002eb006033b800c83bdd0006
:10528800c835de00878375004833dd00c82dde0091
:1052980006837500c82add00c825de0085827500f2
:1052a8004822dd00b4b79f00c5b79f00d6b79f005e
:1052b800e7b79f00214090000082fb008002eb00ce
:1052c8006033b8008603780005037800840278000c
:1052d8000002eb003fb09700cfb097005fb1970096
:1052e800efb197000400400085804800060149009e
:1052f80087814900b0af9f00c1af9f00d2af9f0028
:10530800e3af9f0069427d000480fb008000eb0052
:105318006011b8003faa9700cfaa97005fab97002b
:10532800efab97000002420081824a0002034b0063
:1053380083834b00b4b79f00c5b79f00d6b79f00c3
:10534800e7b79f008fba9700354290000480fb00b2
:105358008000eb006011b800c811dd00480ade00cb
:10536800830172004809dd004802de000201720074
:10537800c800dd000000eb003fb29700cfb29700f5
:105388005fb39700efb397000000420081804a00a6
:1053980002014b0083814b00b0af9f00c1af9f005b
:1053a800d2af9f00e3af9f008fba970045429000ad
:1053b8000480fb008000eb006011b8000001be0013
:1053c8006000b8003faa9700cfaa97005fab97008c
:1053d800efab97000000420081804a0002014b00b9
:1053e80083814b00b0b79f00c1b79f00d2b79f0021
:1053f800e3b79f008fba9700554290000480fb00e6
:105408008000eb006011b800c809dd004802de002a
:10541800830172004801dd006000b8003fb29700c8
:10542800cfb297005fb39700efb397000000420038
:1054380081804a0002014b0083814b00b0af9f007e
:10544800c1af9f00d2af9f00e3af9f008fba970014
:10545800654290000480fb008000eb006011b800fa
:10546800800178000001eb006000b8003faa9700b7
:10547800cfaa97005fab9700efab97000000420000
:1054880081804a0002014b0083814b00b0b79f0026
:10549800c1b79f00d2b79f00e3b79f008fba9700ac
:1054a800754290000480fb008000eb006011b8009a
:1054b800c801dd000001eb006000b8003fb29700b2
:1054c800cfb297005fb39700efb397000000420098
:1054d80081804a0002014b0083814b000014980030
:1054e800111498002214980033149800c5fd370051
:1054f8006bc0b300500020004100200093fd37002e
:105508000b80fb0000804400204290003041900056
:1055180060928000900178001ac0b3000300e00098
:10552800eefd32004811dd000482fb000402410058
:1055380013017800820f52008b0032000200e00055
:10554800e6fd320064804100efe8970080017800b2
:1055580010017800820f520082003200640040007f
:105568000200e000f9ff3a001ac0b300e7fd370077
:105578008b80fb00e9c378008180440011439000d0
:10558800a1419000b140900065928000150178001b
:10559800004578000200e000d0fd3200c808dd00b8
:1055a8008381fb008381400092007800818f510045
:1055b800810032000100e000c8fd320064004100b3
:1055c8000001780090007800818f51007a00320045
:1055d800640040000100e000f9ff3a001ac0b3007f
:1055e800cafd37000b4578000a82fb00848144001d
:1055f80093419000c819dd0069427a000482fb00db
:10560800048241008002eb006033b8000414980063
:1056180015149800261498003714980079fd37005f
:10562800ffed97000b83fb00868144001342900036
:105638000482fb008002eb00482ddd00c825de0057
:105648008b0575004825dd00234290008482fb000d
:10565800040020000a0542008b854a0069427b004d
:105668000482fb008002eb000a0542008b854a0099
:1056780033429000c822dd00040020000a024200e4
:105688008b824a006033b8000414980015149800ff
:1056980026149800371498005afd3700e44f50003c
:1056a80021003200e84f5000c6fe3a003102be0029
:1056b8002103be00f4af9f0085b79f0096b79f00f7
:1056c800a7b79f007fa897008fb097001fb19700da
:1056d800afb19700401498005114980062149800d4
:1056e80073149800bffe3700110078006102b800fb
:1056f8006033b800f4af9f0085b79f0096b79f004e
:10570800a7b79f007fa897008fb097001fb1970099
:10571800afb1970040149800511498006214980093
:1057280073149800affe37001102be006033b80052
:10573800f4af9f0085b79f0096b79f00a7b79f005b
:105748007fa897008fb097001fb19700afb197005f
:10575800401498005114980062149800731498002b
:10576800a0fe3700e1ef9f001ac0b3000200e0007e
:105778005afd3200130090000000e00057fd32008f
:10578800001c98006feb97000cfd3700e1ef9f00bd
:105798001ac0b3000200e00050fd32001300900070
:1057a8000000e0004dfd320010007800001c980059
:1057b8006feb970001fd37001ac0b3000100e0004d
:1057c80046fd3200120290000400e00043fd320062
:1057d800940178001501900092007800818f5100a3
:1057e8000c0032000100e0003cfd32006c0041007a
:1057f8000001780090007800818f51000500320088
:105808006c0040000100e000f9ff3a001ac0b30044
:105818003efd37001ac0b3000100e0002ffd320042
:105828000200e0002dfd3200c830dd000780fb00db
:1058380080804000520190000400780002000100be
:10584800001c98000000e00024fd3200a8729000bf
:10585800e5ef9f0005437800d8fc3700e44f50007f
:1058680021003200e84f500090fd3a003102be009e
:105878002103be00f4a79f0085af9f0096af9f004d
:10588800a7af9f007fa097008fa897001fa9970038
:10589800afa997004014980051149800621498001a
:1058a8007314980089fd3700110078006102b80070
:1058b8006033b800f4a79f0085af9f0096af9f00a4
:1058c800a7af9f007fa097008fa897001fa99700f8
:1058d800afa99700401498005114980062149800da
:1058e8007314980079fd37001102be006033b800c8
:1058f800f4a79f0085af9f0096af9f00a7af9f00ba
:105908007fa097008fa897001fa99700afa99700bd
:105918004014980051149800621498007314980069
:085928006afd370000000500d4
:020000040000fa
:105930000200fa00000f78001e007800e20f50000d
:1059400006003200e30f500006003200e10f500065
:1059500007003a002be3a8000600370061e3a80027
:105960000400370097e3a8000000000001003700a2
:10597000000000000080fa00000006000200fa00ab
:10598000000f78001e007800e20f50000600320081
:10599000e30f500006003200e10f500007003a000c
:1059a0002be3a9000600370061e3a90004003700db
:1059b00097e3a9000000000001003700000000008c
:1059c0000080fa00000006000400fa00000f7800d2
:1059d0000e80e800010878001e007800e20f5000f9
:1059e0001e003200e30f500036003200e10f50007d
:1059f0004e003a000e80e800100078000040780069
:105a0000674060000080fb00670060005219800062
:105a100081ff2f0081006100010070005019880093
:105a20000e80e80010007800e20f500006003a00f7
:105a300091198000f0fc2f00008060000040a00061
:105a4000901988003a00370091198000f0fc2f006f
:105a50000080600090198800350037000e80e80053
:105a60001000780000407800674060000080fb0074
